:020000040800F2
:1000000000000220615900080116000803160008CC
:100010000516000807160008091600080000000071
:100020000000000000000000000000000B160008A7
:100030000D160008000000000F1600081116000839
:10004000B1590008B1590008B1590008B159000868
:10005000B1590008B1590008B1590008B159000858
:10006000B1590008B1590008B1590008B159000848
:10007000B1590008B1590008B1590008B159000838
:10008000B1590008B1590008B1590008B159000828
:10009000B1590008B1590008B1590008B159000818
:1000A000B1590008B1590008B1590008B159000808
:1000B000B1590008B1590008B1590008B1590008F8
:1000C000B1590008B1590008B1590008B1590008E8
:1000D000B1590008B1590008B1590008B1590008D8
:1000E000B1590008B1590008B1590008B1590008C8
:1000F000B1590008B1590008B1590008B1590008B8
:10010000B1590008B15900083D160008B15900085E
:10011000B1590008B1590008B1590008B159000897
:10012000B1590008B1590008B1590008B159000887
:10013000B15900080000000000000000B15900089B
:10014000B1590008B1590008B1590008B159000867
:10015000B1590008B1590008B1590008B159000857
:10016000B1590008B1590008B1590008B159000847
:10017000B1590008B159000800000000000000005B
:08018000B1590008B159000853
:1001900010B5054C237833B9044B13B10448AFF3C1
:1001A00000800123237010BDDC010020000000004E
:1001B000D081000808B5034B1BB103490348AFF3D6
:1001C000008008BD00000000E0010020D081000890
:1001D000034613F8012B002AFBD1181A0138704787
:1001E00001F0FF01102A2BDB10F0070F08D010F8E8
:1001F000013B013A8B422DD010F0070F42B3F6D1EC
:10020000F0B441EA012141EA014122F007047FF004
:1002100000070023F0E80256083C85EA010586EA5B
:10022000010685FA47F5A3FA87F586FA47F6A5FA97
:1002300087F68EB9EED1F0BC01F0FF0102F00702A3
:1002400032B110F8013B013A83EA010313B1F8D14E
:100250000020704701387047002D06BF354603382F
:10026000073815F0010F07D1013015F4807F02BF68
:10027000013015F4C03F0130F0BC0138704700BFB9
:1002800081F0004102E000BF83F0004330B54FEA47
:1002900041044FEA430594EA050F08BF90EA020FB4
:1002A0001FBF54EA000C55EA020C7FEA645C7FEA47
:1002B000655C00F0E2804FEA5454D4EB5555B8BF6A
:1002C0006D420CDD2C4480EA020281EA030382EADB
:1002D000000083EA010180EA020281EA0303362D6D
:1002E00088BF30BD11F0004F4FEA01314FF4801C40
:1002F0004CEA113102D0404261EB410113F0004F52
:100300004FEA03334CEA133302D0524263EB430308
:1003100094EA050F00F0A780A4F10104D5F1200EA6
:100320000DDB02FA0EFC22FA05F2801841F1000101
:1003300003FA0EF2801843FA05F359410EE0A5F1D5
:1003400020050EF1200E012A03FA0EFC28BF4CF006
:10035000020C43FA05F3C01851EBE37101F00045BC
:1003600007D54FF0000EDCF1000C7EEB00006EEBC9
:100370000101B1F5801F1BD3B1F5001F0CD3490853
:100380005FEA30004FEA3C0C04F101044FEA4452AA
:1003900012F5800F80F09A80BCF1004F08BF5FEA31
:1003A000500C50F1000041EB045141EA050130BD11
:1003B0005FEA4C0C404141EB010111F4801FA4F1B4
:1003C0000104E9D191F0000F04BF01460020B1FA09
:1003D00081F308BF2033A3F10B03B3F120020CDA41
:1003E0000C3208DD02F1140CC2F10C0201FA0CF01F
:1003F00021FA02F10CE002F11402D8BFC2F1200C84
:1004000001FA02F120FA0CFCDCBF41EA0C01904039
:10041000E41AA2BF01EB0451294330BD6FEA040482
:100420001F3C1CDA0C340EDC04F11404C4F120026D
:1004300020FA04F001FA02F340EA030021FA04F37F
:1004400045EA030130BDC4F10C04C4F1200220FAD6
:1004500002F001FA04F340EA0300294630BD21FA14
:1004600004F0294630BD94F0000F83F4801306BFDA
:1004700081F480110134013D4EE77FEA645C18BFCE
:100480007FEA655C29D094EA050F08BF90EA020F65
:1004900005D054EA000C04BF1946104630BD91EA5D
:1004A000030F1EBF0021002030BD5FEA545C05D160
:1004B0004000494128BF41F0004130BD14F580049F
:1004C0003CBF01F5801130BD01F0004545F0FE4113
:1004D00041F470014FF0000030BD7FEA645C1ABF48
:1004E000194610467FEA655C1CBF0B46024650EA7F
:1004F000013406BF52EA033591EA030F41F40021AB
:1005000030BD00BF90F0000F04BF0021704730B530
:100510004FF4806404F132044FF000054FF0000105
:1005200050E700BF90F0000F04BF0021704730B5C6
:100530004FF4806404F1320410F0004548BF40429B
:100540004FF000013EE700BF42004FEAE2014FEAF0
:1005500031014FEA02701FBF12F07F4393F07F4FCB
:1005600081F06051704732F07F4208BF704793F0CE
:100570007F4F04BF41F40021704730B54FF46074E1
:1005800001F0004521F000411CE700BF50EA0102E4
:1005900008BF704730B54FF000050AE050EA01028D
:1005A00008BF704730B511F0004502D5404261EBFD
:1005B00041014FF4806404F132045FEA915C3FF43E
:1005C000D8AE4FF003025FEADC0C18BF03325FEADB
:1005D000DC0C18BF033202EBDC02C2F1200300FA8C
:1005E00003FC20FA02F001FA03FE40EA0E0021FAB1
:1005F00002F11444BDE600BF70B54FF0FF0C4CF49F
:10060000E06C1CEA11541DBF1CEA135594EA0C0F50
:1006100095EA0C0F00F0DEF82C4481EA030621EA8B
:100620004C5123EA4C5350EA013518BF52EA0335C6
:1006300041F4801143F4801338D0A0FB02CE4FF078
:100640000005E1FB02E506F00042E0FB03E54FF0A8
:100650000006E1FB03569CF0000F18BF4EF0010EA0
:10066000A4F1FF04B6F5007F64F5407404D25FEA9C
:100670004E0E6D4146EB060642EAC62141EA55514F
:100680004FEAC52040EA5E504FEACE2EB4F1FD0C91
:1006900088BFBCF5E06F1ED8BEF1004F08BF5FEA0F
:1006A000500E50F1000041EB045170BD06F00046C1
:1006B00046EA010140EA020081EA0301B4EB5C046E
:1006C000C2BFD4EB0C0541EA045170BD41F4801166
:1006D0004FF0000E013C00F3AB8014F1360FDEBF8B
:1006E000002001F0004170BDC4F10004203C35DA67
:1006F0000C341BDC04F11404C4F1200500FA05F3EA
:1007000020FA04F001FA05F240EA020001F000428A
:1007100021F0004110EBD37021FA04F642EB060100
:100720005EEA430E08BF20EAD37070BDC4F10C042A
:10073000C4F1200500FA04F320FA05F001FA04F2EE
:1007400040EA020001F0004110EBD37041F10001DA
:100750005EEA430E08BF20EAD37070BDC4F12005E5
:1007600000FA05F24EEA020E20FA04F301FA05F24D
:1007700043EA020321FA04F001F0004121FA04F2F5
:1007800020EA020000EBD3705EEA430E08BF20EAC5
:10079000D37070BD94F0000F0FD101F000464000FF
:1007A00041EB010111F4801F08BF013CF7D041EA81
:1007B000060195F0000F18BF704703F00046520085
:1007C00043EB030313F4801F08BF013DF7D043EA56
:1007D0000603704794EA0C0F0CEA135518BF95EA0C
:1007E0000C0F0CD050EA410618BF52EA4306D1D193
:1007F00081EA030101F000414FF0000070BD50EAB2
:10080000410606BF1046194652EA430619D094EA3B
:100810000C0F02D150EA013613D195EA0C0F05D125
:1008200052EA03361CBF104619460AD181EA030179
:1008300001F0004141F0FE4141F470014FF0000031
:1008400070BD41F0FE4141F4780170BD70B54FF0CC
:10085000FF0C4CF4E06C1CEA11541DBF1CEA13554C
:1008600094EA0C0F95EA0C0F00F0A7F8A4EB05042E
:1008700081EA030E52EA03354FEA013100F0888025
:100880004FEA03334FF0805545EA131343EA1263EE
:100890004FEA022245EA111545EA10654FEA0026A3
:1008A0000EF000419D4208BF964244F1FD0404F55C
:1008B000407402D25B084FEA3202B61A65EB0305B8
:1008C0005B084FEA32024FF480104FF4002CB6EB75
:1008D000020E75EB030E22BFB61A754640EA0C00F5
:1008E0005B084FEA3202B6EB020E75EB030E22BF35
:1008F000B61A754640EA5C005B084FEA3202B6EB76
:10090000020E75EB030E22BFB61A754640EA9C0034
:100910005B084FEA3202B6EB020E75EB030E22BF04
:10092000B61A754640EADC0055EA060E18D04FEAC2
:10093000051545EA16754FEA06164FEAC30343EA62
:1009400052734FEAC2025FEA1C1CC0D111F4801F2F
:100950000BD141EA00014FF000004FF0004CB6E728
:1009600011F4801F04BF01430020B4F1FD0C88BFC7
:10097000BCF5E06F3FF6AFAEB5EB030C04BFB6EBD2
:10098000020C5FEA500C50F1000041EB045170BDC5
:100990000EF0004E4EEA113114EB5C04C2BFD4EBF2
:1009A0000C0541EA045170BD41F480114FF0000E76
:1009B000013C90E645EA060E8DE60CEA135594EAF2
:1009C0000C0F08BF95EA0C0F3FF43BAF94EA0C0FF5
:1009D0000AD150EA01347FF434AF95EA0C0F7FF46A
:1009E00025AF104619462CE795EA0C0F06D152EABE
:1009F00003353FF4FDAE1046194622E750EA4106A2
:100A000018BF52EA43067FF4C5AE50EA41047FF4B2
:100A10000DAF52EA43057FF4EBAE12E74FF0FF3C17
:100A200006E000BF4FF0010C02E000BF4FF0010CE8
:100A30004DF804CD4FEA410C7FEA6C5C4FEA430C61
:100A400018BF7FEA6C5C1BD001B050EA410C0CBFB0
:100A500052EA430C91EA030F02BF90EA020F002012
:100A6000704710F1000F91EA030F58BF994208BF79
:100A700090422CBFD8176FEAE37040F00100704736
:100A80004FEA410C7FEA6C5C02D150EA013C07D18D
:100A90004FEA430C7FEA6C5CD6D152EA033CD3D0D8
:100AA0005DF8040B704700BF8446104662468C46D2
:100AB0001946634600E000BF01B5FFF7B7FF002805
:100AC00048BF10F1000F01BD4DF808EDFFF7F4FF2E
:100AD0000CBF012000205DF808FB00BF4DF808EDB9
:100AE000FFF7EAFF34BF012000205DF808FB00BFDC
:100AF0004DF808EDFFF7E0FF94BF012000205DF8FE
:100B000008FB00BF4DF808EDFFF7CEFF94BF0120B2
:100B100000205DF808FB00BF4DF808EDFFF7C4FFAB
:100B200034BF012000205DF808FB00BF4FEA410CF4
:100B30007FEA6C5C02D150EA013C0AD14FEA430CD7
:100B40007FEA6C5C02D152EA033C02D14FF0000014
:100B500070474FF0010070474FEA410212F5001252
:100B600015D211D56FF47873B3EB625212D94FEAF4
:100B7000C12343F0004343EA505311F0004F23FADE
:100B800002F018BF404270474FF00000704750EA33
:100B9000013005D111F0004008BF6FF000407047F0
:100BA0004FF00000704700BF53B94AB9002908BF91
:100BB00000281CBF4FF0FF314FF0FF3000F072B93A
:100BC000ADF1080C6DE904CE00F006F8DDF804E0A4
:100BD000DDE9022304B070472DE9F047089E044682
:100BE0008846002B4BD18A42154667D9B2FA82F269
:100BF0004AB1C2F1200701FA02F320FA07F7954043
:100C000047EA030894404FEA154E230CB8FBFEF761
:100C10001FFA85FC0EFB178843EA084307FB0CF11B
:100C2000994209D9EB1807F1FF3080F01B819942F6
:100C300040F21881023F2B445B1AA4B2B3FBFEF0D2
:100C40000EFB103344EA034400FB0CFCA44509D915
:100C50002C1900F1FF3380F00781A44540F2048194
:100C600002382C4440EA0740A4EB0C0400271EB1D4
:100C7000D4400023C6E900433946BDE8F0878B42E3
:100C800009D9002E00F0EB800027C6E900013846A4
:100C90003946BDE8F087B3FA83F7002F47D18B427E
:100CA00002D3824200F2FA80841A61EB030301202E
:100CB0009846002EE0D0C6E90048DDE702B9FFDE25
:100CC000B2FA82F2002A40F08F80491B4FEA154E9B
:100CD0001FFA85F80127B1FBFEFC230C0EFB1C114B
:100CE00043EA014308FB0CF1994207D9EB180CF1D8
:100CF000FF3002D2994200F2CD808446591AA3B245
:100D0000B1FBFEF00EFB101443EA044408FB00F8AC
:100D1000A04507D92C1900F1FF3302D2A04500F2FB
:100D2000B6801846A4EB080440EA0C409FE7C7F1E0
:100D3000200CBB4022FA0CFE4EEA030E01FA07F427
:100D400020FA0CF521FA0CF34FEA1E482543B3FBB9
:100D5000F8F92C0C08FB19331FFA8EFA44EA034306
:100D600009FB0AF49C4202FA07F200FA07F10BD9D8
:100D70001EEB030309F1FF3080F087809C4240F2B4
:100D80008480A9F1020973441B1BADB2B3FBF8F0D8
:100D900008FB103345EA034400FB0AFAA24508D9D0
:100DA0001EEB040400F1FF336BD2A24569D902386F
:100DB000744440EA0940A0FB0289A4EB0A044C45B4
:100DC000C2464B4654D351D0002E69D0B1EB0A0530
:100DD00064EB030404FA0CFCFD40FC404CEA0505FE
:100DE000C6E90054002747E7C2F1200320FA03F7C1
:100DF000954001FA02F021FA03F34FEA154E384309
:100E0000010CB3FBFEF71FFA85F80EFB173341EA1E
:100E1000034107FB08F38B4204FA02F407D969186F
:100E200007F1FF3C2FD28B422DD9023F2944CB1A28
:100E300081B2B3FBFEF00EFB103341EA034100FB2D
:100E400008F38B4207D9691800F1FF3C17D28B4297
:100E500015D902382944C91A40EA07473BE7374603
:100E6000304609E70746E7E61846FBE64145ABD2C0
:100E7000B8EB020A69EB0E0201381346A4E760469C
:100E8000E9E7184695E76746D1E781467CE70238EF
:100E90002C4447E7ACF1020C2B442FE7384608E717
:100EA0003746E9E6704700BF10B504460E4B187888
:100EB0004FF47A73B3FBF0F30C4A1068B0FBF3F015
:100EC00002F060FA68B90F2C01D901200AE0002273
:100ED00021464FF0FF3002F015FA054B1C60002050
:100EE00000E0012010BD00BF00000020080000202D
:100EF0000400002008B50B4B1A6842F400721A6017
:100F00001A6842F480621A601A6842F480721A60A9
:100F1000032002F0E5F90020FFF7C6FF02F0E2FC33
:100F2000002008BD003C0240034A1168034B1B78B7
:100F30000B441360704700BF28020020000000200F
:100F4000014B1868704700BF2802002038B50446DE
:100F5000FFF7F6FF0546B4F1FF3F02D0044B1B78C4
:100F60001C44FFF7EDFF401BA042FAD338BD00BF81
:100F7000000000200F49D1F8883043F47003C1F815
:100F800088300D4B1A6842F001021A600020986008
:100F90001A6822F0847222F480321A60074A5A607A
:100FA0001A6822F480221A60D8604FF000638B60C8
:100FB000704700BF00ED00E0003802401030002410
:100FC00000230F2B00F2D780F0B482B039E0072263
:100FD00000E00022B2403A430234674E46F8242033
:100FE000664A1468EA4302EA04064F6817F4803F31
:100FF00001D045EA0406614C2660646802EA0406F2
:101000004F6817F4003F01D045EA04065B4C666068
:10101000A46802EA04064F6817F4801F01D045EA6D
:101020000406564CA660E46822404E6816F4001F81
:1010300001D045EA0402514CE26001330F2B00F26B
:10104000978001229A400C6804EA0205AA42F4D172
:101050004C68022C01D0122C10D1DE08083650F852
:1010600026C003F00704A7000F24BC402CEA040CA0
:101070000C69BC4044EA0C0440F8264004685F0058
:101080000326BE40F64306EA040C4C6804F0030451
:10109000BC4044EA0C0404604C6804F1FF3CBCF121
:1010A000010F03D9112C01D0122C10D1846806EA4B
:1010B000040CCC68BC4044EA0C048460446824EA14
:1010C00002024C68C4F300149C4014434460C2689C
:1010D00016408A68BA403243C2604A6812F0805FA4
:1010E000ABD000220192264A546C44F480445464EC
:1010F000526C02F480420192019A9C08A61C1E4A7E
:1011000052F8267003F0030296000F22B24027EA3D
:1011100002071C4A90423FF45CAF02F580629042A5
:101120001AD002F58062904218D002F58062904297
:1011300016D002F58062904214D002F5806290428F
:1011400012D002F58062904210D002F58062904287
:101150003FF43DAF08223DE701223BE7022239E799
:10116000032237E7042235E7052233E7062231E779
:1011700002B0F0BC7047704700380140003C0140AD
:1011800000380240000002400369194201D10020EA
:1011900070470120704712B909048161704781616D
:1011A0007047000000B585B01648174B03604FF438
:1011B0008033436000238360036183610362C36201
:1011C000124A8262C3600122C2610363426102F07B
:1011D0009DF968B90423009301230193032302932B
:1011E0006946084802F0B6FA38B905B05DF804FB64
:1011F0004A21074801F090F9ECE75421044801F036
:101200008BF9F2E774020020002001400100000F7A
:101210000082000800B585B01648174B03604FF4F4
:101220008033436000238360036183610362C36290
:10123000124A8262C3600122C2610363426102F00A
:1012400065F960B900230093012201920293694677
:10125000084802F07FFA38B905B05DF804FB6D214B
:10126000074801F059F9EDE77721054801F054F9F5
:10127000F2E700BF2C020020002101400100000F16
:101280000082000800B585B01648174B03604FF484
:101290008033436000238360036183610362C36220
:1012A000124A8262C3600122C2610363426102F09A
:1012B0002DF960B90123009301930023029369463D
:1012C000084802F047FA38B905B05DF804FB9021F0
:1012D000074801F021F9EDE79A21054801F01CF9D2
:1012E000F2E700BFBC020020002201400100000F15
:1012F0000082000800B589B00368274A934208D0ED
:10130000264A93421BD0264A93422ED009B05DF85C
:1013100004FB00210091234B5A6C42F480725A6402
:101320005B6C03F480730093009B102303930323EF
:101330000493059103A91C48FFF742FEE6E700214C
:101340000191184B5A6C42F400725A645B6C03F4BE
:1013500000730193019B09230393032304930591D5
:1013600003A91148FFF72CFED0E7002102910D4B95
:101370005A6C42F480625A645B6C03F4806302939B
:10138000029B0623039303230493059103A90648B4
:10139000FFF716FEBAE700BF002001400021014020
:1013A00000220140003802400000024010B584B025
:1013B0000423009301230193032302930C4C6946F9
:1013C000204602F0C7F9204602F0CAF83221084848
:1013D00002F062F90028F9D1054C204602F0B7F975
:1013E000044B1880204602F037F904B010BD00BF4E
:1013F00074020020F404002010B584B0012301938E
:101400000323029304A9002341F8103D184C204601
:1014100002F0A0F9204602F0A3F83221144802F0AD
:101420003BF90028F9D1124C204602F090F9114BFB
:101430001880204602F010F904A9032341F8103D5A
:10144000204602F087F9204602F08AF83221084847
:1014500002F022F90028F9D1054C204602F077F974
:10146000054B1880204602F0F7F804B010BD00BF0D
:101470002C0200206C0500207C05002010B584B0F3
:10148000012301930322029204A941F8103D184C54
:10149000204602F05FF9204602F062F8322114483B
:1014A00002F0FAF80028F9D1114C204602F04FF969
:1014B000104B1880204602F0CFF804A9022341F80F
:1014C000103D204602F046F9204602F049F832214C
:1014D000074802F0E1F80028F9D1054C204602F057
:1014E00036F9054B1880204602F0B6F804B010BD5E
:1014F000BC0200208C0500202005002010B584B01F
:10150000012301930323029304A9002341F8103D12
:10151000184C204602F01EF9204602F021F8322134
:10152000144802F0B9F80028F9D1124C204602F014
:101530000EF9114B5880204602F08EF804A90323BF
:1015400041F8103D204602F005F9204602F008F867
:101550003221084802F0A0F80028F9D1054C2046B5
:1015600002F0F5F8054B5880204602F075F804B0FB
:1015700010BD00BF2C0200206C0500207C0500205F
:1015800010B584B0012301930322029204A941F80B
:10159000103D184C204602F0DDF8204601F0E0FF37
:1015A0003221144802F078F80028F9D1114C204675
:1015B00002F0CDF8104B5880204602F04DF804A9F7
:1015C000022341F8103D204602F0C4F8204601F005
:1015D000C7FF3221074802F05FF80028F9D1054C17
:1015E000204602F0B4F8054B5880204602F034F84B
:1015F00004B010BDBC0200208C0500202005002096
:101600007047FEE7FEE7FEE7FEE77047704770476A
:1016100008B5FFF789FC01F0DCFE074B587802F0B3
:10162000A7FE01F0D9FDFFF7C1FE02F037FF02F07F
:10163000E9FF03F073F808BDFC04002008B51E485C
:1016400002F0D6FA1D4B1B78DBB2012B30D11C4ABD
:1016500013780133DBB21370013B072B24D8DFE88A
:1016600003F004070B1013171A1DFFF789FF21E081
:10167000062003F067FD1DE0FFF700FF03F048FDC3
:1016800018E0FFF73BFF15E0092003F05BFD11E0D8
:10169000FFF7B2FE0EE003F03BFD0BE003F0F0FCC1
:1016A000074B00221A7005E0054B00221A7001E07A
:1016B00003F02EFD08BD00BF88030020FC040020BD
:1016C000F801002090F83830012B22D030B40122EC
:1016D00080F83820022380F839300468636823F0EA
:1016E00070036360046863680D682B43636004687B
:1016F000A36823F08003A3600468A36849680B43D0
:10170000A36080F83920002380F83830184630BCB8
:1017100070470220704790F83830012B25D0012304
:1017200080F83830CB6823F440738A68134323F47D
:1017300080634A68134323F400630A68134323F465
:1017400080530A69134323F400534A69134323F473
:1017500080438A69134323F40043134302685364AC
:10176000002380F8383018467047022070477047D1
:1017700070470000F0B58BB0002401942A4B1A6B1F
:1017800042F004021A631A6B02F004020192019AF9
:1017900002941A6B42F001021A631A6B02F0010202
:1017A0000292029A03941A6B42F002021A631A6BB5
:1017B00002F002020392039A04941A6B42F00802A8
:1017C0001A631B6B03F008030493049B174F224614
:1017D00046F2CF113846FFF7DEFC154D22464FF496
:1017E00080512846FFF7D7FC46F2CF130593012618
:1017F00006960794089405A93846FFF7E1FB4FF4D5
:101800008053059306960794089405A92846FFF788
:10181000D7FB042305930694079405A90548FFF711
:10182000CFFB0BB0F0BD00BF003802400008024003
:1018300000040240000C0240F8B505460F4616466B
:101840001C463BE02CB1FFF77BFB069BC01AA04275
:1018500034D32A68536823F0E00353606B68B3F510
:10186000827F0BD0AB6AB3F5005F14D0012385F8FB
:101870005130002385F85030032027E0AB68B3F5E2
:10188000004F02D0B3F5806FECD12A68136823F0C3
:1018900040031360E6E72A68136823F400531B042F
:1018A0001B0C13602A68136843F400531360DDE7D0
:1018B0000123B34209D0B4F1FF3FC3D12B689B6829
:1018C00037EA0303F4D00023F3E70020F8BD10B596
:1018D00082B0044600920B4600228021FFF7ACFF45
:1018E000034610B9184602B010BD636D43F02003E3
:1018F00063650323F6E700283BD010B504460023B8
:10190000836290F85130002B2ED0022384F851309E
:101910002268136823F0400313606368A2681343CE
:10192000E26813432269134362691343A26902F414
:1019300000721343E2691343226A1343A16A2268C7
:101940000B431360638B03F00403616A22680B434B
:1019500053602268D36923F40063D361002060657B
:10196000012384F8513010BD80F8503002F0EEFBB6
:10197000CBE7012070472DE9F04184B01E4690F876
:101980005030012B00F0C88004460D4690460123DC
:1019900080F85030FFF7D4FA074694F85130DBB2A4
:1019A000012B0AD00223012284F85120002284F85E
:1019B0005020184604B0BDE8F081002D00F0A4804E
:1019C000B8F1000F00F0A280032384F85130002307
:1019D00063652563A4F83480A4F83680A363A387E5
:1019E000E38763642364A368B3F5004F1BD02368C7
:1019F0001A6812F0400F03D11A6842F040021A60D0
:101A0000E368B3F5006F14D063681BB1E38E9BB23B
:101A1000012B3ED1236815F8012B1A73E38E013B8D
:101A20009BB2E38635E02268136843F48043136079
:101A3000DDE763681BB1E38E9BB2012B0DD12368F8
:101A400035F8022BDA60E38E013B9BB2E38604E0BB
:101A5000002E5DD0B6F1FF3F0FD1E38E9BB27BB37A
:101A600023689A6812F0020FF2D035F8022BDA6080
:101A7000E38E013B9BB2E386EFE7FFF761FAC01B01
:101A8000B042EAD303238EE7002E43D0B6F1FF3FE6
:101A90000FD1E38E9BB29BB123689A6812F0020FBC
:101AA000F2D015F8012B1A73E38E013B9BB2E3864B
:101AB000EFE7FFF745FAC01BB042EAD3032372E712
:101AC00000973346012202212046FFF7B5FE08B1F8
:101AD000032368E73A4631462046FFF7F8FE0346FF
:101AE00018B12023636501235DE7A26832B9039230
:101AF0002268D168039192680392039A626D002A6A
:101B00003FF451AF01234EE701234CE701234AE79D
:101B1000032348E7032346E702234AE72DE9F0437E
:101B200085B099460C9D90F85030012B00F0108143
:101B300004460F461646012380F85030FFF700FA9E
:101B4000804694F85130DBB26268012B15D0B2F5B3
:101B5000827F0AD00223012284F85120002284F8D7
:101B60005020184605B0BDE8F083A268002A40F076
:101B7000E780042B01D00223EDE7002F00F0E28084
:101B8000002E00F0E180B9F1000F00F0DF8094F842
:101B90005130DBB2012B2BD000236365A663A4F880
:101BA0003E90A4F83C902763A4F83690A4F83490B3
:101BB0002364636423681A6812F0400F03D11A6823
:101BC00042F040021A60E368B3F5006F14D0636816
:101BD0001BB1E38E9BB2012B07D1236817F8012BB1
:101BE0001A73E38E013B9BB2E3864FF0010961E07B
:101BF000052384F85130CFE763681BB1E38E9BB2B5
:101C0000012B07D1236837F8022BDA60E38E013B02
:101C10009BB2E3864FF0010913E0E38F9BB26BB1F7
:101C200023689A6812F0010F08D0DB6826F8023B9F
:101C3000E38F013B9BB2E3874FF00109B5F1FF3F12
:101C40001CD1E38E9BB21BB9E38F9BB2002B55D006
:101C5000B9F1000FE1D0E38E9BB2002BDDD02368F9
:101C60009A6812F0020FD8D037F8022BDA60E38EB0
:101C7000013B9BB2E3864FF00009CEE7FFF760F926
:101C8000A0EB0800A842DCD3032364E7E38F9BB2F8
:101C90006BB123689A6812F0010F08D0DB683370CB
:101CA000E38F013B9BB2E38701364FF00109B5F1A9
:101CB000FF3F1BD1E38E9BB213B9E38F9BB2EBB115
:101CC000B9F1000FE2D0E38E9BB2002BDED0236887
:101CD0009A6812F0020FD9D03A781A73E38E013B5A
:101CE0009BB2E38601374FF00009CFE7FFF728F9F1
:101CF000A0EB0800A842DDD303232CE7CDF8008039
:101D00002B46012202212046FFF796FD08B103234E
:101D100021E7424629462046FFF7D9FD034618B180
:101D200020236365012316E7A268002A7FF413AF1E
:101D300003922268D168039192680392039A0AE79A
:101D4000022308E7012306E7012304E7012302E752
:101D5000022306E72DE9F04182B004460D461746FE
:101D60001E464368B3F5827F19D094F85030012B9A
:101D700000F0A280012384F85030FFF7E1F880469C
:101D800094F85130DBB2012B15D00220012384F8E6
:101D90005130002384F8503002B0BDE8F0818368F0
:101DA000002BE2D1042380F85130009613460A46F6
:101DB000FFF7B4FEF0E7002D74D0002F74D0042399
:101DC00084F8513000236365A563A787E787236301
:101DD000A386E38623646364A368B3F5004F0BD046
:101DE00023681A6812F0400F03D11A6842F04002CB
:101DF0001A60E3685BB128E02268136823F480432B
:101E00001360EDE7002E51D0B6F1FF3F10D1E38F04
:101E10009BB2002B31D023689A6812F0010FF1D0E9
:101E20001B7B05F8013BE38F013B9BB2E387EEE7A9
:101E3000FFF786F8A0EB0800B042E8D30320A5E73F
:101E4000002E35D0B6F1FF3F0FD1E38F9BB2A3B187
:101E500023689A6812F0010FF2D0DB6825F8023B84
:101E6000E38F013B9BB2E387EFE7FFF769F8A0EB55
:101E70000800B042E9D3032088E76368B3F5827FA6
:101E800003D0636DB3B9002080E7A368B3F5004FBA
:101E900002D0B3F5806FF4D12268136823F04003B9
:101EA0001360EEE7012071E701206FE703206DE783
:101EB00003206BE7012069E702206DE7002800F0AE
:101EC000BB8170B582B00446036813F0010F3BD0AC
:101ED000A74B9B6803F00C03042B2CD0A44B9B68EE
:101EE00003F00C03082B21D06368B3F5803F4FD07B
:101EF000B3F5A02F52D09E4B1A6822F480321A609C
:101F00001A6822F480221A606368002B50D0FFF711
:101F100017F80546964B1B6813F4003F14D1FFF7E2
:101F20000FF8401B6428F5D903208AE1904B5B68C9
:101F300013F4800FD8D08E4B1B6813F4003F03D0EE
:101F40006368002B00F07A81236813F0020F55D0EC
:101F5000874B9B6813F00C0F3ED0854B9B6803F0BA
:101F60000C03082B33D0E368002B68D0814B01228F
:101F70001A60FEF7E5FF05467D4B1B6813F0020F64
:101F800054D1FEF7DDFF401B0228F5D9032058E1AC
:101F9000774A136843F480331360B5E7744B1A68CB
:101FA00042F480221A601A6842F480321A60ABE769
:101FB000FEF7C6FF05466E4B1B6813F4003FC3D007
:101FC000FEF7BEFF401B6428F5D9032039E1684BBA
:101FD0005B6813F4800FC6D1654B1B6813F0020FCA
:101FE00004D0E368012B01D001202AE1604A136884
:101FF00023F0F803216943EAC1031360236813F057
:10200000080F40D0636963B35B4B01221A60FEF78F
:1020100097FF0546564B5B6F13F0020F33D1FEF767
:102020008FFF401B0228F5D903200AE1504A1368AC
:1020300023F0F803216943EAC1031360DEE74D4B47
:1020400000221A60FEF77CFF0546494B1B6813F01F
:10205000020FD3D0FEF774FF401B0228F5D90320EE
:10206000EFE0454B00221A60FEF76AFF0546404B41
:102070005B6F13F0020F06D0FEF762FF401B0228D1
:10208000F5D90320DDE0236813F0040F79D0384B35
:102090001B6C13F0805F33D100230193344B1A6C17
:1020A00042F080521A641B6C03F080530193019B31
:1020B0000125324B1B6813F4807F23D0A368012BCA
:1020C00034D0052B38D02A4B1A6F22F001021A6740
:1020D0001A6F22F004021A67A368002B36D0FEF7AD
:1020E0002FFF0646224B1B6F13F0020F48D1FEF75D
:1020F00027FF801B41F288339842F3D90320A0E0E8
:102100000025D6E71D4A136843F480731360FEF779
:1021100017FF0646194B1B6813F4807FCED1FEF7DC
:102120000FFF801B0228F5D903208AE0104A136FA5
:1021300043F001031367CFE70D4B1A6F42F004021F
:102140001A671A6F42F001021A67C5E7FEF7F8FE38
:102150000646074B1B6F13F0020F11D0FEF7F0FE7F
:10216000801B41F288339842F3D9032069E000BF15
:102170000038024000004742800E47420070004095
:10218000E5B9A369002B5BD0304A926802F00C02DB
:10219000082A58D0022B17D02D4B00221A60FEF7C8
:1021A000CFFE0446294B1B6813F0007F42D0FEF798
:1021B000C7FE001B0228F5D9032042E0234A136C16
:1021C00023F080531364DCE7214B00221A60FEF7F2
:1021D000B7FE05461D4B1B6813F0007F06D0FEF7C7
:1021E000AFFE401B0228F5D903202AE0E369226AEA
:1021F0001343626A43EA8213A26A5208013A43EA2D
:102200000243E26A43EA0263104A5360104B012220
:102210001A60FEF795FE04460C4B1B6813F0007F16
:1022200006D1FEF78DFE001B0228F5D9032008E039
:10223000002006E0002004E001207047012000E0BB
:10224000002002B070BD0120FBE700BF0038024053
:1022500060004742264B9B6803F00C03042B44D0DC
:10226000082B01D0234870472DE9F04B204B5A68CA
:1022700002F03F025B6813F4800F13D01C4B5968C7
:10228000C1F3881100231C48A1FB0001FEF78CFC60
:10229000174B5B68C3F3014301335B00B0FBF3F002
:1022A000BDE8F08B124B5B68C3F388131E46002712
:1022B0005C010025E41A65EB0705A90141EA946178
:1022C000A001001B61EB0501CB0043EA5073C40081
:1022D000A01943EB07018B0243EA90538402204686
:1022E00019460023FEF760FCD2E70348704700BFA1
:1022F000003802400024F40040787D01002800F0FE
:102300009D8070B504464F4B1B6803F00F038B4252
:1023100009D2CBB24B4A1370136803F00F038B4200
:1023200001D0012070BD236813F0020F17D013F005
:10233000040F04D0444A936843F4E0539360236845
:1023400013F0080F04D0404A936843F4604393604D
:102350003D4A936823F0F003A068034393600D4661
:10236000236813F0010F32D06368012B21D09A1E2D
:10237000012A25D9344A126812F0020F60D032497E
:102380008A6822F0030213438B60FEF7D9FD0646EC
:102390002D4B9B6803F00C036268B3EB820F16D0E1
:1023A000FEF7CEFD801B41F288339842F0D903201E
:1023B000B8E7254A126812F4003FE0D10120B1E7E6
:1023C000214A126812F0007FD9D10120AAE71D4BE3
:1023D0001B6803F00F03AB4209D9EAB2194B1A701C
:1023E0001B6803F00F03AB4201D001209AE723687A
:1023F00013F0040F06D0144A936823F4E053E16805
:102400000B439360236813F0080F07D00E4A9368BC
:1024100023F46043216943EAC1039360FFF71AFF85
:10242000094B9B68C3F30313084AD35CD840084B9D
:1024300018600020FEF738FD002073E70120704788
:1024400001206FE7003C024000380240E8810008AC
:1024500008000020014B1868704700BF08000020EA
:1024600008B5FFF7F7FF044B9B68C3F38223034AC9
:10247000D35CD84008BD00BF00380240F881000896
:1024800008B5FFF7E7FF044B9B68C3F34233034AE9
:10249000D35CD84008BD00BF00380240F881000876
:1024A00000B583B002A901F8010D01231A460348C3
:1024B00000F0F8FA03B05DF804FB00BF040300204D
:1024C00008B5512002F032FD5B2002F02FFD0E4BCB
:1024D0001B680021986803F013FF0C4801F0F3FA21
:1024E00018210B4801F0ECFD18210A4801F0E8FD25
:1024F00002F0A0FD02F0A8FD02F062FE01F0D2FEA3
:1025000002F076FE08BD00BF0C000020880300200A
:10251000C403002044030020FEE7000000B595B08E
:1025200000220192284B196C41F0805119641B6CF8
:1025300003F080530193019B0292244B196841F4EC
:10254000804119601B6803F480430293029B0223BD
:10255000089301210B9110210C910E930F920822E8
:1025600010925022119212930423139308A8FFF79C
:10257000A5FC08BB0F2303930221049100230593BC
:102580004FF480520692079303A8FFF7B7FEB8B93D
:10259000FFF760FF0E4BA3FB0030800900F0F2FE56
:1025A000042000F005FF002211464FF0FF3000F03C
:1025B000A9FE15B05DF804FBA9210648FFF7ACFFA2
:1025C000B7210448FFF7A8FF003802400070004020
:1025D000D34D62100C82000808B5FEF78BFCFFF7A4
:1025E0009DFFFFF7C7F800F019F800F001FB01F0BC
:1025F00089FD00F0C7FA00F0A3FC00F025FC00F014
:102600002DFBFEF7CFFDFEF705FEFEF73BFEFFF7C5
:1026100057FF02F0BFF802F06FF9FAE708B50B4870
:102620000B4B03604FF41653436000238360C36079
:1026300003610C2242618361C36100F004FA00B9B6
:1026400008BD42210348FFF767FFF9E704030020B4
:1026500000480040188200080268124B9A4200D0DD
:10266000704700B587B0002300930F4B1A6C42F4FB
:1026700080221A641B6C03F480230093009B4FF4A8
:1026800040630193022302930123039303230493E2
:102690000723059301A90548FEF792FC07B05DF8F2
:1026A00004FB00BF00480040003802400004024024
:1026B0002DE9F843044601680A6922F44052C368D0
:1026C00013430B610168CA6822F4164222F00C021F
:1026D00083680069034360690343E069034313436C
:1026E000CB6021684A6922F44072A36913434B61AD
:1026F000E369B3F5004F60D02368B84A934200F015
:10270000148102F58062934200F00F81FFF7A8FE6A
:1027100000EB800000EB80006568AD00B0FBF5F5D4
:10272000AF4FA7FB05356D092E01FFF799FE00EBB2
:10273000800000EB80006568AD00B0FBF5F9FFF7A5
:102740008FFE00EB800000EB80006568AD00B0FB01
:10275000F5F5A7FB05356D094FF0640808FB1595E5
:102760002D013235A7FB05356D0905F0F00535441F
:10277000FFF776FE00EB800000EB80006668B60095
:10278000B0FBF6F6FFF76CFE00EB800000EB80007C
:1027900063689B00B0FBF3F0A7FB0030400908FB27
:1027A00010684FEA081808F13208A7FB0837C7F38A
:1027B000431723682F449F600DE12368874A9342A3
:1027C0005BD002F58062934257D0FFF749FE00EBE1
:1027D000800000EB800065686D00B0FBF5F5804F70
:1027E000A7FB05356D092E01FFF73AFE00EB8000CF
:1027F00000EB800065686D00B0FBF5F9FFF730FE77
:1028000000EB800000EB800065686D00B0FBF5F523
:10281000A7FB05356D094FF0640808FB1595ED0021
:102820003235A7FB05356D096D0005F4F8753544A3
:10283000FFF716FE00EB800000EB80006668760074
:10284000B0FBF6F6FFF70CFE00EB800000EB80001B
:1028500063685B00B0FBF3F3A7FB03235B0908FB92
:1028600013684FEAC80808F13208A7FB0837C7F316
:10287000421723682F449F60ADE0FFF701FE00EB95
:10288000800000EB800065686D00B0FBF5F5544FEB
:10289000A7FB05356D092E01FFF7F2FD00EB800067
:1028A00000EB800065686D00B0FBF5F9FFF7E8FD0F
:1028B00000EB800000EB800065686D00B0FBF5F573
:1028C000A7FB05356D094FF0640808FB1595ED0071
:1028D0003235A7FB05356D096D0005F4F8753544F3
:1028E000FFF7CEFD00EB800000EB8000666876000D
:1028F000B0FBF6F6FFF7C4FD00EB800000EB8000B4
:1029000063685B00B0FBF3F3A7FB03235B0908FBE1
:1029100013684FEAC80808F13208A7FB0837C7F365
:10292000421723682F449F6055E0FFF7A9FD00EB95
:10293000800000EB80006568AD00B0FBF5F5284F26
:10294000A7FB05356D092E01FFF79AFD00EB80000E
:1029500000EB80006568AD00B0FBF5F9FFF790FD76
:1029600000EB800000EB80006568AD00B0FBF5F582
:10297000A7FB05356D094FF0640808FB15952D017F
:102980003235A7FB05356D0905F0F0053544FFF735
:1029900077FD00EB800000EB80006668B600B0FBBE
:1029A000F6F6FFF76DFD00EB800000EB800063683A
:1029B0009B00B0FBF3F0A7FB0030400908FB106858
:1029C0004FEA081808F13208A7FB0837C7F3431786
:1029D00023682F449F60BDE8F88300BF00100140CA
:1029E0001F85EB512DE9F04105460F4616469846E6
:1029F000069C2B681B6837EA03030CBF01230023E6
:102A0000B3421DD1B4F1FF3FF3D02CB1FEF798FAD9
:102A1000A0EB0800A042ECD92A68D36823F4D07355
:102A2000D3602A68536923F001035361202385F89A
:102A3000393085F83A30002385F83830032000E03B
:102A40000020BDE8F08158B310B5044690F8393045
:102A50000BB3242384F839302268D36823F400535D
:102A6000D3602046FFF724FE2268136923F49043C5
:102A700013612268536923F02A0353612268D368E3
:102A800043F40053D3600020E063202384F83930FE
:102A900084F83A3010BD80F83830FFF7DDFDD8E714
:102AA000012070472DE9F04182B01E4690F8393080
:102AB000DBB2202B55D104460D469046002955D057
:102AC000002A55D090F83830012B53D0012380F8DC
:102AD00038300023C363212380F83930FEF730FA01
:102AE0000746A4F82480A4F8268010E000963B4610
:102AF000002280212046FFF775FF00283CD12B885B
:102B00002268C3F3080353602369C3B90235E38C19
:102B10009BB2B3B1E38C013B9BB2E384A368B3F5F2
:102B2000805FE3D000963B46002280212046FFF7DD
:102B300059FF18BB2A7823685A600135E7E7013549
:102B4000E5E700963B46002240212046FFF74AFF7A
:102B50000346A8B9202284F83920002284F83820BE
:102B600000E00223184602B0BDE8F0810123F9E736
:102B70000123F7E70223F5E70323F3E70323F1E754
:102B80000323EFE700B58DB01648174B0360002311
:102B9000436083604FF6FF72C260036101220392BB
:102BA0000493059206930793089309920A930B9353
:102BB00003A901F06DF950B900230193029301A913
:102BC0000848FEF77FFD38B90DB05DF804FBB7216A
:102BD0000648FFF7A1FCEFE7BE210448FFF79CFC85
:102BE000F2E700BFC4030020000400402482000874
:102BF00000B58DB01648174B036000234360836017
:102C00004FF6FF72C26003610122039204930592A2
:102C100006930793089309920A930B9303A901F073
:102C200037F950B900230193029301A90848FEF730
:102C300049FD38B90DB05DF804FBD8210648FFF70F
:102C40006BFCEFE7DF210448FFF766FCF2E700BF0B
:102C500044030020000800402482000800B587B02B
:102C60001848194B0360092343600023836040F236
:102C7000E732C260036101F0D9F898B906A94FF4B0
:102C8000805341F8103D0F4800F029FF78B9002328
:102C90000093019369460B48FEF714FD60B907B035
:102CA0005DF804FBF0210948FFF736FCE6E7F62162
:102CB0000648FFF731FCEAE7FD210448FFF72CFC4A
:102CC000EDE700BF88030020000C004024820008CC
:102CD00082B00368104A934204D0B3F1804F0ED003
:102CE00002B07047002300930C4B5A6C42F0010273
:102CF0005A645B6C03F001030093009BF0E7002330
:102D00000193064B1A6C42F001021A641B6C03F02B
:102D100001030193019BE3E70000014000380240FA
:102D200000B589B003681D4A934205D01C4A9342FE
:102D30001BD009B05DF804FB0023019302F50D32AE
:102D4000116C41F002011164126C02F00202019256
:102D5000019AC022039202220492059306930792DD
:102D600003A91048FEF72CF9E3E70023029302F5CC
:102D70000C32116C41F004011164126C02F0040277
:102D80000292029AC02203920222049205930693B1
:102D9000079203A90448FEF713F9CAE700040040AC
:102DA00000080040000002400004024002680E4B90
:102DB0009A4200D0704700B583B00021019103F51D
:102DC0000B331A6C42F008021A641B6C03F0080300
:102DD0000193019B0A46322000F094FA322000F061
:102DE000C5FA03B05DF804FB000C004000B587B0E5
:102DF0000368134A934205D0B3F1804F11D007B056
:102E00005DF804FB4FF470630193022302930023E7
:102E1000039304930123059301A90A48FEF7D0F810
:102E2000EDE72023019302230293002303930493ED
:102E30000123059301A90348FEF7C2F8DFE700BFAD
:102E4000000001400000024000B591B039483A4B03
:102E50000360012343600023836040F21F32C2609D
:102E60000361436100F0FBFF00283FD100230E9374
:102E70000F930EA92F48FEF725FC00283BD16023B5
:102E800007930022089209920A920B920C920D92DB
:102E900007A9284801F07AF8002831D1042207A9AF
:102EA000244801F073F800282FD1082207A92148EF
:102EB00001F06CF870BB0C2207A91E4801F066F8FF
:102EC00068BB0023009301930293039304934FF490
:102ED00000520592069369461648FEF71CFC18BB83
:102EE0001448FFF783FF11B05DF804FB4A21134833
:102EF000FFF712FBBAE751211048FFF70DFBBEE7C1
:102F00005D210E48FFF708FBC8E762210B48FFF779
:102F100003FBCAE767210948FFF7FEFACBE76C21FC
:102F20000648FFF7F9FACCE778210448FFF7F4FAEE
:102F3000D6E700BF1C0400200000014024820008E6
:102F400000B58BB01B484FF08043036009234360FA
:102F50000023836040F2E732C260036100F07FFF2C
:102F6000C0B900230893099308A91248FEF7AAFBE9
:102F7000A8B960230193002202920392059201A94D
:102F80000C4801F003F878B90A48FFF72FFF0BB09F
:102F90005DF804FB8B210848FFF7BEFAE1E79221B8
:102FA0000548FFF7B9FAE4E79B210348FFF7B4FAB5
:102FB000EAE700BF580400202482000810B50C4640
:102FC0001A4B4FF080421A60586000229A6040F21B
:102FD000CF71D9601A615A61184600F040FF98B964
:102FE000134960230B604C6000228A60CA600A614A
:102FF0004A618A610D4800F0C9FF58B900210B48A9
:1030000001F042F860B910BD40F2FD110948FFF728
:1030100083FAE5E740F209210648FFF77DFAEDE77C
:1030200040F20D210348FFF777FAECE7580400203F
:10303000000400202482000838B50C46624B602250
:103040001A6000229A60DA601A615A619A61B0F5DA
:10305000487F05DA054610F5487F03DC5B4D01E04B
:1030600040F21F35B4F5487F04DA14F5487F03DCDD
:10307000564C01E040F21F34002D3BDB5249002248
:103080004A60534800F082FF002850D14E494D60FD
:1030900004224F4800F07AFF00284ED1002C52DB6A
:1030A000494900234B600C22494800F06FFF00287B
:1030B00066D145494C600822454800F067FF00286A
:1030C00064D10021424800F0DFFF002864D10421D0
:1030D0003F4800F0D9FF002864D108213C4800F0A7
:1030E000D3FF002864D10C21394800F0CDFF00281F
:1030F00064D138BD6D4234494D600022344800F03F
:1031000045FF70B9304900234B600422304800F07D
:103110003DFF0028C2D040F237212E48FFF7FCF9CE
:10312000BCE740F232212B48FFF7F6F9EAE740F21C
:103130003E212848FFF7F0F9A8E740F2432125484F
:10314000FFF7EAF9AAE764421F494C600C222048C5
:1031500000F01CFF70B91C4900234B6008221C487A
:1031600000F014FF0028ACD040F251211948FFF7BD
:10317000D3F9A6E74FF413711648FFF7CDF9EAE744
:103180004FF416711348FFF7C7F992E740F25D213B
:103190001048FFF7C1F994E740F263210D48FFF7AB
:1031A000BBF994E740F266210A48FFF7B5F994E7C6
:1031B00040F269210748FFF7AFF994E74FF41B711C
:1031C0000448FFF7A9F994E700040020E1FCFFFFA1
:1031D0001C0400202482000810B4364C636A1BB221
:1031E00035494A6A12B2002060624862334803607F
:1031F000524233490A6007EE903AF8EEE75A9FEDE3
:10320000315A65EE855AB1EE053AC5EE836A76EE1F
:10321000A66ADFED2D3A66EEA36A9FED2C4A66EEB4
:10322000846ADFED2B4AC6EEA47AC0ED017A07EE80
:10323000902AB8EEE76A26EE056A86EE037A37EE44
:10324000077A27EE237A27EE047AC7EE247AC1EDB7
:10325000017A134407EE903AF8EEE77A67EE857A42
:1032600087EE835A65EE237A67EE847A87EEA45A56
:10327000184B83ED015AD0ED027A77EEA66AC0EDC5
:10328000026AD1ED027A37EE877A81ED027A9FEDFC
:10329000127A65EE875ADFED117A65EEA75AC0ED16
:1032A000035A26EE076A26EE276A81ED036A5DF867
:1032B000044B704700040040000800409C050020BB
:1032C0004C0500200000803ADB0F4940CDCC444142
:1032D0006F12833A0005002000007A44000070421B
:1032E000074AD36823F4E0631B041B0C000200F4BC
:1032F000E060184340F0BF6040F40030D060704799
:1033000000ED00E030B4174BDB68C3F30223C3F1D8
:103310000704042C28BF04241D1D062D18D9033BC7
:103320004FF0FF3505FA04F421EA0401994005FA4B
:1033300003F322EA0303194300280BDB0901C9B296
:1033400000F1604000F5614080F8001330BC704728
:103350000023E5E700F00F000901C9B2024B195440
:10336000F4E700BF00ED00E014ED00E000F01F0204
:10337000400901239340024A42F82030704700BFC1
:1033800000E100E00138B0F1807F0AD2064B5860BE
:10339000064AF02182F823100020986007221A6064
:1033A00070470120704700BF10E000E000ED00E032
:1033B000042805D0054A136823F0040313607047FE
:1033C000024A136843F004031360704710E000E002
:1033D000704708B5FFF7FCFF08BD0000494B5A686D
:1033E00022F440325A605A6841680A435A600268BF
:1033F000536823F48073536002685368016943EA99
:10340000012353600268536823F0407353600268DD
:10341000536881680B4353600268936823F4006328
:10342000936002689368C1680B439360826A364B6D
:103430009A4249D00268936823F0706393600268EF
:103440009368816A0B4393600268936823F040534A
:10345000936002689368C16A0B4393600268936843
:1034600023F00203936002689368816943EA410391
:103470009360036A002B32D10268536823F400631F
:1034800053600268D36A23F47003D3620168CB6A85
:10349000C269013A43EA0253CB620268936823F49B
:1034A0000073936002689368016B43EA4123936061
:1034B0000268936823F480639360026893684169AB
:1034C00043EA8123936070470268936823F0706336
:1034D00093600268936823F040539360BEE70268EC
:1034E000536843F4006353600268536823F46043F5
:1034F000536001684B68426A013A43EA42334B60C9
:10350000BFE700BF002301400100000F30B310B53A
:103510000446036C43B1236C13F0100F0AD0012052
:10352000002384F83C3010BD436480F83C30FDF744
:10353000E1FEF0E7236C23F4885323F0020343F009
:10354000020323642046FFF749FF00206064236CD8
:1035500023F0030343F001032364E1E701207047F4
:1035600082B00023019390F83C30012B63D00123FB
:1035700080F83C3003689A6812F0010F13D19A6802
:1035800042F001029A60304B1B68304AA2FB0323D1
:103590009B0C03EB4303019302E0019B013B01936E
:1035A000019B002BF9D10268936813F0010F44D0FE
:1035B000036C23F4E06323F0010343F4807303649A
:1035C000536813F4806F05D0036C23F4405343F425
:1035D00080530364036C13F4805F19D0436C23F0B1
:1035E00006034364002380F83C306FF0220313602D
:1035F000174B5B6813F01F0F0DD103689A6812F028
:10360000405F1DD19A6842F080429A60002015E028
:1036100000234364E6E703680E4A934201D000208A
:103620000CE09A6812F0405F0CD19A6842F0804238
:103630009A60002002E0022000E0002002B0704703
:103640000020FBE70020F9E70800002083DE1B4391
:10365000002301400020014090F83C30012B19D09C
:10366000012380F83C300268936823F001039360E3
:1036700003689B6813F0010F07D1036C23F4885390
:1036800023F0010343F001030364002380F83C307E
:10369000184670470220704703689A6812F4806FDA
:1036A00003D09B6813F4807F1CD170B50D4604468F
:1036B000FDF746FC064623681A6812F0020F1AD17D
:1036C000B5F1FF3FF7D025B1FDF73AFC801BA842CA
:1036D000F1D9236C43F004032364002384F83C30C5
:1036E00003202DE0036C43F020030364002380F8E3
:1036F0003C30012070476FF012021A60236C43F4D3
:103700000073236423689A6812F0405F17D1A2699E
:10371000BAB9DA6A12F4700F03D09B6813F4806FA1
:1037200011D1236C23F480732364236C13F4805F22
:103730000BD1236C43F001032364002000E0002040
:1037400070BD0020FCE70020FAE70020F8E70368DE
:10375000D86C704730B482B00023019390F83C30AD
:10376000012B00F0B780012380F83C300B68092B57
:103770003ED90568EA689BB203EB43031E3B07246E
:1037800004FA03F322EA0303EB600568EA688C6835
:103790000B8803EB43031E3B04FA03F31343EB6074
:1037A0004B68062B3AD805686A6B03EB8303053B2D
:1037B0001F2404FA03F322EA03036B6305686A6BB0
:1037C0004B6803EB8303053B0C8804FA03F31343B4
:1037D0006B630268404B9A4250D002683E4B9A425B
:1037E00055D0002380F83C30184602B030BC7047FA
:1037F00005682A699BB203EB4303072404FA03F329
:1038000022EA03032B6105682A698C680B8803EBA5
:10381000430304FA03F313432B61C1E70C2B16D8BF
:1038200005682A6B03EB8303233B1F2404FA03F38D
:1038300022EA03032B6305682A6B4B6803EB8303BF
:10384000233B0C8804FA03F313432B63C1E7056899
:10385000EA6A03EB8303413B1F2404FA03F322EAE1
:103860000303EB620568EA6A4B6803EB8303413BA1
:103870000C8804FA03F31343EB62AAE70B68122BDC
:10388000ABD1164A536843F480035360A5E70B6835
:10389000103B012BA5D8114A536843F40003536031
:1038A0000B68102B9DD10E4B1B6802F1467202F57E
:1038B0002E3202F28332A2FB03239B0C03EB830321
:1038C0005A00019202E0019B013B0193019B002BF6
:1038D000F9D186E7022088E700200140002301405B
:1038E0000800002008B50320FFF7FAFC002211466B
:1038F0006FF00B00FFF706FD002211466FF00A0083
:10390000FFF700FD002211466FF00900FFF7FAFCF7
:10391000002211466FF00400FFF7F4FC002211466C
:103920006FF00300FFF7EEFC002211466FF001007C
:10393000FFF7E8FC002211464FF0FF30FFF7E2FCF2
:1039400008BD000070B4036A23F001030362036A38
:103950004268846924F073040D6845EA040623F084
:1039600002048B6823430C4DA84202D00B4CA042AA
:103970000BD123F00803CD682B4323F0040322F47A
:1039800040724D6915438A692A43426086614A68DC
:103990004263036270BC70470000014000040140B4
:1039A00030B4036A23F480730362036A4268C46913
:1039B00024F073040D682C4323F400738D6843EAEC
:1039C00005230E4DA84203D005F58065A8420ED10F
:1039D00023F40063CD6843EA052323F4806322F4D3
:1039E00040524D6942EA05128D6942EA0512426071
:1039F000C4614A68C263036230BC70470000014082
:103A000030B4036A23F480530362036A4468C269D2
:103A100022F4E6420D6842EA052223F400538D6841
:103A200043EA0533094DA84203D005F58065A84255
:103A300004D124F480444D6944EA85144460C26191
:103A40004A680264036230BC704700BF0000014056
:103A500010B4036A046A24F001040462846924F047
:103A6000F00444EA021223F00A030B43826103626A
:103A70005DF8044B704710B4036A23F0100303622F
:103A80008469036A24F4704444EA023223F0A003F8
:103A900043EA0113826103625DF8044B7047836857
:103AA00023F0700341F0070119438160704710B49F
:103AB000846824F47F4442EA03230B432343836056
:103AC0005DF8044B70470268D36843F00103D3608C
:103AD0000268136843F0010313600020704790F8F8
:103AE0003830012B7DD010B50446012380F83830E2
:103AF000022380F839300268936823F47F4323F06F
:103B0000770393600B68402B57D010D9702B3ED0B1
:103B10001FD8502B47D0602B32D1CA684968006843
:103B2000FFF7A9FF60212068FFF7B9FF28E0102BFD
:103B30004DD008D9202B4FD0302B21D13021006817
:103B4000FFF7ADFF1CE0DBB900210068FFF7A7FF1E
:103B500016E0B3F5805F0ED0B3F5005F10D1CB68EF
:103B60004A6889680068FFF7A2FF2268936843F4F7
:103B70008043936004E00268936823F00703936036
:103B8000012384F83930002084F8380010BDCB6858
:103B90004A6889680068FFF78AFF2268936843F0E3
:103BA00077039360ECE7CA6849680068FFF750FF45
:103BB00050212068FFF773FFE2E7CA684968006890
:103BC000FFF746FF40212068FFF769FFD8E7102183
:103BD0000068FFF764FFD3E720210068FFF75FFF6D
:103BE000CEE70220704770477047704770477047B4
:103BF00010B5044603681A6912F0020F11D0DA6892
:103C000012F0020F0DD06FF002021A610123037649
:103C100003689B6913F0030F70D0FFF7E6FF0023E2
:103C2000237623681A6912F0040F12D0DA6812F0B2
:103C3000040F0ED06FF004021A610223237623686A
:103C40009B6913F4407F5FD02046FFF7CEFF00232F
:103C5000237623681A6912F0080F12D0DA6812F07E
:103C6000080F0ED06FF008021A6104232376236830
:103C7000DB6913F0030F4ED02046FFF7B6FF002399
:103C8000237623681A6912F0100F12D0DA6812F046
:103C9000100F0ED06FF010021A61082323762368EC
:103CA000DB6913F4407F3DD02046FFF79EFF0023E1
:103CB000237623681A6912F0010F03D0DA6812F034
:103CC000010F36D123681A6912F0800F03D0DA6829
:103CD00012F0800F34D123681A6912F0400F03D01C
:103CE000DA6812F0400F32D123681A6912F0200FFF
:103CF00003D0DA6812F0200F30D110BDFFF774FF47
:103D00002046FFF773FF8AE72046FFF76DFF204646
:103D1000FFF76CFF9BE72046FFF766FF2046FFF7A3
:103D200065FFACE72046FFF75FFF2046FFF75EFF29
:103D3000BDE76FF001021A612046FFF754FFC1E7AB
:103D40006FF080021A612046FDF712FDC3E76FF0A5
:103D500040021A612046FFF74AFFC5E76FF02002D4
:103D60001A612046FDF703FDC7E7000003682E4AED
:103D7000904212D0B0F1804F0FD0A2F57C42904219
:103D80000BD002F58062904207D002F5806290422B
:103D900003D002F57842904203D123F070034A68C1
:103DA0001343214A90422AD0B0F1804F27D0A2F588
:103DB0007C42904223D002F5806290421FD002F5EF
:103DC000806290421BD002F57842904217D002F5F3
:103DD0007052904213D002F5806290420FD002F5EB
:103DE000806290420BD0A2F59832904207D002F543
:103DF0008062904203D002F58062904203D123F4A6
:103E00004073CA68134303608B68C3620B688362A4
:103E1000054B984203D003F58063984201D10B69AA
:103E2000036301234361704700000140A8B110B54E
:103E3000044690F839305BB1022384F83930211DF3
:103E40002068FFF793FF012384F83930002010BD6C
:103E500080F83830FEF7AAFFEEE701207047A8B1DE
:103E600010B5044690F839305BB1022384F839303C
:103E7000211D2068FFF77AFF012384F839300020E4
:103E800010BD80F83830FEF723FFEEE701207047C1
:103E9000002847D0F8B505460C4690F83930002B7D
:103EA0003BD0022385F83930294651F8042B93681A
:103EB00023F0070393602868FFF758FF29688A6892
:103EC0008E690F6A2068104326F4407626F00306B8
:103ED000A268A36942EA0323334323F47C4323F01B
:103EE000FC03E668E26946EA02261E43226A1303DF
:103EF000226943EA0213334327F0AA076268646920
:103F000042EA04123A43886029688B612B681A627E
:103F1000012385F839300020F8BD80F83830FEF7ED
:103F2000FFFEBEE70120704730B4036A23F01003A0
:103F30000362036A4468826922F4E6420D6842EA39
:103F4000052223F020038D6843EA05130E4DA84295
:103F500003D005F58065A8420ED123F08003CD681B
:103F600043EA051323F0400324F440644D6944EA16
:103F700085048D6944EA8504446082614A688263ED
:103F8000036230BC704700BF0000014038B590F8B4
:103F90003830012B66D00D460446012380F83830B6
:103FA000022380F839300C2A1AD8DFE802F007190A
:103FB0001919201919193419191947000068FFF740
:103FC000C1FC2268936943F00803936122689369F6
:103FD00023F0040393612268936929690B43936179
:103FE000012384F83930002084F8380038BD006897
:103FF000FFF79AFF2268936943F400639361226894
:10400000936923F48063936122689369296943EA81
:1040100001239361E4E70068FFF7C2FC2268D369DB
:1040200043F00803D3612268D36923F00403D3610A
:104030002268D36929690B43D361D1E70068FFF790
:10404000DFFC2268D36943F40063D3612268D3693B
:1040500023F48063D3612268D369296943EA012389
:10406000D361BDE70220C1E710B4012303FA01F4D4
:10407000036A23EA04030362036A8A401343036268
:104080005DF8044B7047000010B50446012200683B
:10409000FFF7EAFF2368094A934203D002F58062E2
:1040A000934203D15A6C42F400425A642268136866
:1040B00043F001031360002010BD00BF0000014069
:1040C00010B5044661B1042916D001220021006810
:1040D000FFF7CAFF012204212068FFF7C5FF04E0B3
:1040E000012200210068FFF7BFFF2268136843F038
:1040F00001031360002010BD012204210068FFF7B6
:10410000B3FFF2E708B50E480E4B03604FF482731D
:10411000436000238360C360036143614FF4007216
:104120008261C3610362436283620A23C362FDF753
:10413000E2FB00B908BD45210348FEF7EDF9F9E7B8
:104140009404002000380040308200080268124BBE
:104150009A4200D0704700B587B00021009103F566
:1041600000331A6C42F480421A641B6C03F48043DF
:104170000093009B4FF46043019302230293039149
:10418000032304930523059301A90448FCF718FFB2
:1041900007B05DF804FB00BF003800400004024097
:1041A00030B583B00446114D00224FF480512846AB
:1041B000FCF7F1FF64F07F0402A901F8014D0C4CFB
:1041C000642301222046FDF7D6FB642301220DF172
:1041D00006012046FDF7BEFD01224FF4805128461E
:1041E000FCF7D9FF9DF8060003B030BD0004024083
:1041F0009404002030B583B00446134D00224FF4E0
:1042000080512846FCF7C7FF64F07F0402A901F83B
:10421000014D0E4C642301222046FDF7ACFB6423C4
:1042200001220DF106012046FDF794FD9DF80640A0
:10423000240224B201224FF480512846FCF7ABFF40
:10424000204603B030BD00BF0004024094040020AB
:1042500070B584B08DF8071000F07F0004AC04F84E
:10426000010D0E4D00224FF480512846FCF793FFBC
:104270000B4E6423012221463046FDF77CFB64236C
:1042800001220DF107013046FDF775FB01224FF4C5
:1042900080512846FCF77FFF04B070BD0004024047
:1042A0009404002008B5002002E07520FFF778FF95
:1042B0007028FAD10146084802F00AF800216B2064
:1042C000FFF7C6FF00211A20FFF7C2FF18211B20AD
:1042D000FFF7BEFF08BD00BF3C82000810B54720B5
:1042E000FFF788FF04464820FFF75AFF00B220433B
:1042F00000B2024B9C89001B00B210BD3C0500209F
:10430000044B0022DA601A8103494A7000225A6085
:10431000704700BF3C050020FC04002010B547207A
:10432000FFF768FF04464820FFF73AFF00B2044356
:104330000C4B1B89B3F5FA6F0CD30A49CB680A4AB8
:1043400082FB0302DB17C3EBE213CB60074B0122B6
:104350005A7010BD24B2034AD1680C44D4600133B2
:104360001381F6E73C050020D34D6210FC040020C9
:1043700010B52DED028B012804D0FFF7CFFFBDEC67
:10438000028B10BDFFF7AAFF07EE900AB8EEE77A9E
:104390009FED0C8AC7EE087A0B4CC4ED007AFFF74C
:1043A0009DFF07EE900AB8EEE77AC7EE087A9FED18
:1043B000077A27EE877AD4ED017A77EE877AC4ED13
:1043C000017ADCE7333383413C0500206F12833AE6
:1043D00070B50D461646002404E0AFF30080287047
:1043E00001340135B442F8DB304670BD70B5164675
:1043F000002405E04D1C0878FEF752F801342946E8
:10440000B442F7DB304670BD08B503460B4A12686C
:1044100042B10A4A106803446A46934206D8074AE2
:10442000136008BD054A06491160F2E701F0C2FABF
:104430000C2303604FF0FF30F3E700BFFC010020C6
:10444000C00C00204FF0FF3070474FF400534B601A
:1044500000207047012070470020704770EE600A0E
:1044600020EE811ADFED0C7A60EEA77A90ED000A5B
:1044700077EE807AC0ED007A67EEA11A91ED007AAE
:1044800030EEC77A27EE022AC1ED000A71EE211A3A
:1044900031EE820A704700BF6F12833A08B52DEDE6
:1044A000048B4A4B93F90430002B5ED0484B1B8899
:1044B000002B60D0454AB2F9021007EE901AF8EED0
:1044C000E77A9FED447A27EE877AB2F9001007EE7B
:1044D000901AF8EEE77A77EE877AFDEEE77A17EE34
:1044E000901A1180013B3A4A13803B4BD3ED010AED
:1044F0003A4B93ED019A354B93F9042008EE102ABC
:10450000F8EEC87AB3F9003008EE103AB8EEC88A6F
:1045100027EE888ADFED328AB0EE682AF2EE041ABE
:10452000B1EE001A2F493048B0EE480AFFF796FF67
:10453000BDEEC00A2D4B10EE102A1A80B0EE682A8C
:10454000F2EE041AB1EE001A29492A48F0EE490A9F
:10455000B0EE480AFFF782FFBDEEC00A264B10EE10
:10456000102A1A80BDEC048B08BD244BD3ED010A40
:10457000B0EE609ABFE7164B5B881BB1013B144A53
:104580005380B2E7124B9B88DBB1104AB2F902109C
:1045900007EE901AF8EEE77A9FED0E7A27EE877A0B
:1045A000B2F9001007EE901AF8EEE77A77EEC77AC4
:1045B000FDEEE77A17EE901A1180013B044A9380D2
:1045C00093E70F4B01229A708FE700BF340500205C
:1045D0005C0500206F12833A9C0500204C050020EA
:1045E000000000000002002008020020100200204D
:1045F000040200200C02002012020020000500200E
:10460000FC04002008B53C4B93F9043093B13B4BBC
:104610001B88002B34D1394B5B88002B4CD1374B96
:104620009B88002B4CD1344B00221A80344B012242
:104630009A7002E0304B00221A802F4B93F904202D
:1046400000EE102AB8EEC00AB3F9003007EE903A37
:10465000F8EEE77AB1EE002AF2EE021A9FED291A7F
:1046600029492A482A4BD3ED000A20EE270AFFF7F2
:10467000F5FEBDEEC00A274B10EE102A1A8008BDC9
:104680001D4AB2F9021007EE901AF8EEE77A9FED94
:10469000227A27EE877AB2F9001007EE901AF8EE28
:1046A000E77A77EE877AFDEEE77A17EE901A1180B7
:1046B000013B124A1380C0E7013B104A5380BCE71C
:1046C0000D4AB2F9021007EE901AF8EEE77A9FED64
:1046D000127A27EE877AB2F9001007EE901AF8EEF8
:1046E000E77A77EEC77AFDEEE77A17EE901A118037
:1046F000013B024A9380A0E764050020EC040020FF
:10470000FC0400201F856B3F1402002018020020CB
:104710003C0500201C0200206F12833A08B50C4BA8
:104720009B788BB90B4BB3F900000B4BB3F900101E
:10473000074B9B782BB9094B1B88C01A00B2194450
:1047400009B2FEF779FC08BD00210846F0E700BF7A
:10475000FC04002010020020120200201C02002095
:104760000023064A1360064A1360064A1360064A8D
:104770001360064A1360064A13607047080200205F
:10478000000200200C020020040200201802002079
:104790001402002010B500241FE013F11E0F2DDAC3
:1047A000013C64B22AE000241C4B00229A60C4EB56
:1047B0004413C4EB83035800C0B2563800F0FE0027
:1047C00000F0B4FB00F0C0FB01281DD0E0B200F007
:1047D000E9FB2146124801F07BFD104BD3ED027A34
:1047E000FDEEE77A17EE903A1BB203F11E0292B289
:1047F0003C2AE7D91E2BD0DD013464B2062CD2DC72
:10480000002CD1DA0624CFE74C2000F08FFB4FF4C8
:10481000FA70FCF79BFB204610BD00BF9C050020F2
:104820006082000808B501F041F808BD10B52C4BB6
:1048300001221A7026E000224FF400512948FCF7AB
:10484000AAFC29E000224FF480412648FCF7A3FC93
:104850002CE0244C00224FF480712046FCF79BFC96
:10486000002280212046FCF796FC1F4B9B881F4AA4
:1048700092881F4989881F4801F02AFD00F064FBD7
:10488000012824D0184B9B7A012BD4D001224FF45D
:1048900000511448FCF77FFC154B9B7A012BD1D0BB
:1048A00001224FF480410F48FCF775FC0F4B9B7AB7
:1048B000012BCED00B4C01224FF480712046FCF727
:1048C0006AFC012280212046FCF765FCCDE74C20E4
:1048D00000F02CFB4FF4FA70FCF738FB10BD00BF62
:1048E000FC040020000802408C0500201005002078
:1048F000200500204C82000808B5062807D8DFE80C
:1049000000F00407213B06065500FFF78BFF08BDAA
:10491000284B01221A70284B9B7A012BFBD1254B87
:1049200000221A70722000F001FBFFF7E9FC40F64C
:10493000C410FCF70BFB00F083F81E4B9B78002B98
:10494000FBD0E4E71B4B01221A701B4B9B7A012B17
:10495000FBD1184B00221A70722000F0E7FAFFF723
:10496000CFFC40F6C410FCF7F1FA00F07FF8114BD1
:104970009B78002BFBD0CAE70E4B01221A700E4B1E
:104980009B7A012BFBD10B4B00221A70722000F096
:10499000CDFAFFF7B5FC40F6C410FCF7D7FA00F0EB
:1049A0007CF8044B9B78002BFBD0B0E7FFF73EFF71
:1049B000ADE700BFFC0400201005002000B583B067
:1049C0004FF47A6300934FF4C8731A4600215A20BB
:1049D00000F064FC0020009003460246014600F00F
:1049E000D9FC03B05DF804FB00B583B04FF47A63E3
:1049F00000934FF4C873002219465A2000F04EFC71
:104A00000020009003460246014600F0C3FC03B0BC
:104A10005DF804FB00B583B04FF47A6300934FF464
:104A2000C8731A461946B42000F038FC00200090E4
:104A300003460246014600F0ADFC03B05DF804FBFE
:104A400010B582B000240094234622462146204619
:104A500000F024FC4FF4FA6300934FF4BE73224637
:104A600021465A2000F096FC02B010BD10B582B06D
:104A700000240094234622462146204600F00EFCE6
:104A80004FF4FA6300934FF4BE73224621466FF051
:104A9000590000F07FFC02B010BD10B582B00024B8
:104AA0000094234622462146204600F0F7FB4FF4AF
:104AB000FA6300934FF4BE7322462146B42000F0FF
:104AC00069FC02B010BD000000B583B04FF4FA637A
:104AD0000093C823002211466FF0360000F0DEFB81
:104AE0000020009003460246014600F053FC0E4BA6
:104AF0009B78002BFBD04FF47A6300934FF4C8737C
:104B00001A460021892000F0C9FB002000900346CE
:104B10000246014600F03EFC034B9B78002BFBD085
:104B200003B05DF804FB00BFFC04002008B5FFF7EC
:104B300071FF024B9B78002BFBD008BDFC040020CA
:104B400008B5FFF751FF084B9B78002BFBD0FFF710
:104B500077FF054B9B78002BFBD0FFF72FFF024B15
:104B60009B78002BFBD008BDFC04002008B5FFF7A4
:104B70003BFF084B9B78002BFBD0FFF777FF054BE3
:104B80009B78002BFBD0FFF719FF024B9B78002B83
:104B9000FBD008BDFC04002008B5FFF725FF084B3B
:104BA0009B78002BFBD0FFF778FF054B9B78002B01
:104BB000FBD0FFF703FF024B9B78002BFBD008BD17
:104BC000FC04002000B583B0FFF70EFF1E4B9B785E
:104BD000002BFBD0FFF761FF1B4B9B78002BFBD01A
:104BE000FFF7ECFE184B9B78002BFBD04FF4FA63D9
:104BF0000093C823002211466FF0360000F04EFBF0
:104C00000020009003460246014600F0C3FB0E4B15
:104C10009B78002BFBD04FF47A6300934FF4C8735A
:104C20001A460021892000F039FB0020009003463D
:104C30000246014600F0AEFB034B9B78002BFBD0F5
:104C400003B05DF804FB00BFFC04002008B5FFF7CB
:104C5000CBFE024B9B78002BFBD008BDFC04002050
:104C600070B483B0002116E0544A02EB0112FE201A
:104C7000D05401330F2B0DDC514A12788A42F3D104
:104C80004F4A52789A42EFD14C4A02EB011200206F
:104C9000D054EEE701310F2901DC0023EAE70123BC
:104CA0008DF80730002579E06E1C444A02EB0412AF
:104CB000D65401228DF8072039E06BB13F4A02EB50
:104CC00000120A4492F8002432B94A1E3B4E06EB09
:104CD0000016B25CAA4244D06CB1384A02EB001212
:104CE0000A4492F8002532B9421E344E06EB0212F5
:104CF000525CAA423ED00133DBB20F2B43D8204690
:104D000019462E4A02EB0412D25CFE2AF3D10E2B76
:104D10000DD82A4A02EB04121A4492F8002232B942
:104D20005A1C264E06EB0416B25CAA42BCD00E2CCE
:104D3000C3D8224A02EB00120A4492F80023002A48
:104D4000BBD1421C1D4E06EB0212525CAA42B4D1EA
:104D50006E1C1A4A02EB0012565401228DF80720ED
:104D6000ABE76E1C154A02EB0012565401228DF877
:104D70000720B1E76E1C114A02EB001046540122D5
:104D80008DF80720B7E70134E4B20F2C01D80023D7
:104D9000B3E79DF80730DBB2012B08D09DF8073050
:104DA000DBB2012B06D100248DF80740EDE7013579
:104DB000EDB2F3E703B070BC704700BFB005002050
:104DC000B40C0020024B01221A7000225A70704766
:104DD000B40C0020002014E0194B03EB00130B442B
:104DE000002283F8002383F8002283F8002483F84C
:104DF000002583F8002683F8002101310F29EBDD1F
:104E000001300F2801DC0021F8E70D4B012283F867
:104E1000002383F8102500230FE0094AD018012150
:104E200080F8F01380F8001503F1400000011154E0
:104E300002EB031282F80F120B440F2BEDDD7047CB
:104E4000B0050020F0B4344B03EB00130B440122F7
:104E500083F80026314B9B78032B58D8DFE803F00A
:104E6000023F474F2E4B9E7A2E4B9D7A2E4B9A7ABD
:104E70000024F6B2284B03EB00130B4483F80062C6
:104E8000EDB283F80053E4B283F80044D2B283F861
:104E900000250E2906DC4B1C1F4F07EB00173B4477
:104EA00083F800640E2806DC431C1B4E06EB03133C
:104EB0000B4483F80055002906DD4B1E164D05EB0B
:104EC00000152B4483F80042002806DD0138124B00
:104ED00003EB0010014481F80023F0BC7047104B35
:104EE0009D7A104B9C7A104B9E7A0022C1E70C4BA6
:104EF0009C7A0C4B9A7A0C4B9D7A0026B9E7084BAA
:104F00009A7A084B9E7A084B9C7A0025B1E70022DA
:104F1000144615461646ACE7B0050020AC05002047
:104F2000100500208C0500202005002008B54FF456
:104F30009671FEF743F86420FCF708F800210A2078
:104F4000FEF73CF808BD000010B5074C04212046D0
:104F5000FCF71AF904212046FCF716F9012801D0C4
:104F6000012010BD0020FCE7000C024010B50C4CE5
:104F700001224FF400512046FCF70DF901224FF4B5
:104F800080412046FCF707F9012280212046FCF7EA
:104F900002F901224FF480712046FCF7FCF810BDA5
:104FA0000008024010B5044618B314F0010F23D0D6
:104FB00000224FF400511E48FCF7EDF814F0020FE8
:104FC00021D000224FF480411948FCF7E4F814F096
:104FD000040F1FD0002280211548FCF7DCF814F0E4
:104FE000080F1DD101224FF480711148FCF7D3F84E
:104FF00010BDFFF7BBFFD8E701224FF400510C486A
:10500000FCF7C9F8DAE701224FF480410848FCF7C1
:10501000C2F8DCE7012280210548FCF7BCF8DEE796
:1050200000224FF480710248FCF7B5F8E0E700BFBA
:1050300000080240034B00221A70012199705A7037
:10504000704700BFFC0400200023074A9360074A12
:105050009360074A93600023064AD380064AD380B0
:10506000064AD380704700BF000500209C05002041
:105070004C05002020050020100500208C05002094
:1050800070B41E4D2C886B88E41AA4B2AC801C4A04
:10509000138851885B1A9BB293801A4A11885088F2
:1050A000091A89B29180184802884688921B92B2E8
:1050B00082800B445B0815498B80A9898C4211D9E9
:1050C0000120A872114989898B420FD90F4B012108
:1050D00099720D4B9B899A420CD80B4B00229A7205
:1050E00070BC7047054900208872EBE7074B002130
:1050F0009972EEE7044B01229A72F1E72005002035
:105100007C0500206C0500208C0500201005002087
:1051100010B50B4C002201212046FCF73CF8002280
:1051200002212046FCF737F8002204212046FCF734
:1051300032F8002208212046FCF72DF810BD00BFF0
:105140000008024010B5044610F0010F1DD00122E6
:1051500011461A48FCF71FF814F0020F1BD0012269
:1051600002211648FCF717F814F0040F19D0012299
:1051700004211248FCF70FF814F0080F17D1002291
:1051800008210E48FCF707F810BD002201210B484A
:10519000FCF701F8E0E7002202210848FBF7FBFFDB
:1051A000E2E7002204210548FBF7F5FFE4E70122CE
:1051B00008210248FBF7EFFFE6E700BF00080240C6
:1051C000084A40F6C41393814FF4FA63D381064A28
:1051D00040F6EA319181D381044A40F654319181FD
:1051E000D381704720050020100500208C05002089
:1051F00010B582B000239FED227A08E0214A128880
:1052000007EE902AF8EEE77A37EE277A0133092B7A
:10521000F4DDF2EE047AC7EE276ADFED1B7A86EE44
:10522000A77ADFED1A7A27EE277ADFED196AC7EE43
:10523000267A9FED187A67EE877A124BC3ED017AD2
:10524000BCEEE77A8DED017A9DF8044017EE900AE6
:10525000FBF77AF902460B460F4801F039F8204671
:10526000FFF7A0FEFFF770FE0128FBD14C20FFF7EF
:105270005DFE4FF4FA70FBF769FE02B010BD00BF8F
:1052800000000000F404002000F07F45000005430A
:105290000000044233335340648200082DE9F0419A
:1052A00005460C4616461F46BDF81880FFF758FA0B
:1052B000344B1C80A3F80280002D07DB002D5AD050
:1052C000002D07DD2F4B01221A7103E06D422DB234
:1052D000FF221A713B1B07EE103AB8EEC77A07EEB1
:1052E000908AF8EEE77A87EE276ABB1B07EE103A42
:1052F000B8EEC77AC7EE276A07EE905AB8EEE77A9B
:105300003B1907EE903AF8EEE77A67EE867AF6EE0A
:10531000005A67EEA57A77EE677ABB1907EE103A66
:10532000B8EEC77A27EE267A27EE257A37EEC77AC7
:1053300007EE907AF8EEE77AC7EE275A9FED127AD9
:1053400026EE076A65EE877A66EE876A0F4BBCEE3B
:10535000C66A16EE102A1A80FCEEE77A17EE902A3B
:105360005A80FCEEE66A16EE902A9A80084B0022DC
:105370009A70BDE8F081034B00221A714FF00108CA
:105380004746A7E73405002000007A445C0500206A
:10539000FC0400202DE9F04105460C4616461F4648
:1053A000BDF91880FFF7DCF9344B1C80A3F80280AC
:1053B000002D07DB002D5AD0002D07DD2F4B0122D9
:1053C0001A7103E06D422DB2FF221A713B1B07EEEA
:1053D000103AB8EEC77A07EE908AF8EEE77A87EED1
:1053E000276ABB1B07EE103AB8EEC77AC7EE276AEA
:1053F00007EE905AB8EEE77A3B1907EE903AF8EECE
:10540000E77A67EE867AF6EE005A67EEA57A77EECF
:10541000677ABB1907EE103AB8EEC77A27EE267AFC
:1054200027EE257A37EEC77A07EE907AF8EEE77A1C
:10543000C7EE275A9FED127A26EE076A65EE877A45
:1054400066EE876A0F4BBCEEC66A16EE102A1A800B
:10545000FCEEE77A17EE902A5A80FCEEE66A16EE2A
:10546000902A9A80084B00229A70BDE8F081034B85
:1054700000221A714FF001084746A7E76405002093
:1054800000007A44EC040020FC040020042800F210
:10549000B280DFE800F0032845698D00564B9B7809
:1054A000032B00F2A880DFE803F002091017524B2B
:1054B0001A78013A1A7003229A7070474E4B5A7844
:1054C00001325A7000229A7070474B4B1A780132A1
:1054D0001A7001229A707047474B5A78013A5A70F5
:1054E00002229A707047444B9B78032B00F2838012
:1054F000DFE803F002070C113F4A53780133537081
:1055000070473D4A13780133137070473A4A537815
:10551000013B53707047384A1378013B1370704752
:10552000354B9B78032B66D8DFE803F00209101790
:10553000314B1A7801321A7001229A7070472E4B43
:105540005A78013A5A7002229A7070472A4B1A7898
:10555000013A1A7003229A707047274B5A78013229
:105560005A7000229A707047234B9B78032B42D8C5
:10557000DFE803F0020910171F4B5A78013A5A70FE
:1055800002229A7070471C4B1A78013A1A70032253
:105590009A707047184B5A7801325A7000229A70EC
:1055A0007047154B1A7801321A7001229A707047B1
:1055B000114B9B78032B1ED8DFE803F0020910176C
:1055C0000D4B5A78013A5A7002229A7070470A4B72
:1055D0001A78013A1A7003229A707047064B5A786B
:1055E00001325A7000229A707047034B1A780132C8
:1055F0001A7001229A707047AC05002030B4A94B94
:105600009B78032B00F24381DFE813F00400530082
:10561000A300F100A34A13785178481CA24A02EB78
:105620000312125CFD2A0BD80E2930D89E4800EBDD
:105630000310084490F8000260B30320FE2201E04A
:105640000320FE225C1E984D05EB0414645C94421A
:1056500008D23BB105EB03150D4495F800550DB983
:10566000224600205C1C904D05EB0414645C9442BF
:1056700009D20E2B07D805EB03150D4495F80053FE
:105680000DB922460220FE2A06D030BC7047032006
:10569000FE22D7E70120D5E7834A02EB0313194422
:1056A00091F80032002B00F0F480012BEDD10420A2
:1056B000EBE77C4B1978481C5B787B4A02EB0012C5
:1056C000D25CFD2A0CD80E293ED8774800EB011099
:1056D000184490F80003002839D00320FE2201E08E
:1056E0000320FE225C1C704D05EB01152C5D9442DD
:1056F0000AD20E2B08D86C4D05EB01151D4495F808
:1057000000520DB9224600205C1E674D05EB0115C5
:105710002C5D944209D243B1634D05EB01151D4444
:1057200095F800540DB922460220FE2AADD15E4AFA
:1057300002EB01110B4493F80033002B00F0AB8017
:10574000012BA2D10420A0E70320FE22CAE70120FA
:10575000C8E7544A13785178481E534A02EB0312A3
:10576000125CFD2A0BD800293CD04F4800EB0310F7
:10577000084490F80004C0B30320FE2201E0032097
:10578000FE225C1C484D05EB0414645C944209D273
:105790000E2B07D805EB03150D4495F800530DB9F2
:1057A000224600205C1E404D05EB0414645C9442CC
:1057B00008D23BB105EB03150D4495F800550DB922
:1057C00022460220FE2A7FF460AF374A02EB031321
:1057D000194491F80034002B5FD0012B7FF455AFB2
:1057E000042052E70320FE22CBE70020C9E72D4B1F
:1057F0001978481E5B782C4A02EB0012D25CFD2A15
:105800000CD800293ED0284800EB0110184490F82D
:105810000005002839D00320FE2201E00320FE22EB
:105820005C1E214D05EB01152C5D944209D243B15C
:105830001D4D05EB01151D4495F800540DB9224688
:1058400000205C1C184D05EB01152C5D94420AD21A
:105850000E2B08D8144D05EB01151D4495F8005288
:105860000DB922460220FE2A7FF40FAF0E4A02EB4A
:1058700001110B4493F800358BB1012B7FF405AF78
:10588000042002E70320FE22CAE70120C8E7032024
:10589000FBE60320F9E60320F7E60320F5E6032004
:1058A000F3E600BFAC050020B005002070B5FFF79F
:1058B00091FA274B01221A70264B9B7A002BFBD0C2
:1058C0006620FFF733FBFEF71BFD40F6C410FBF725
:1058D0003DFBFFF7F9F8204B00261E7001225A709D
:1058E0009E70FFF76FFA7EBB1B4C94F9011094F980
:1058F0000000FFF7A7FAFFF7B3F9FFF77FFE0546B1
:10590000FFF7C4FD2278154B1B789A4206D0042D70
:10591000E9D8DFE805F00A0D1013160062780F4B86
:105920005B789A42F3D10126F1E7FFF709F9DAE74C
:10593000FFF7FCF8D7E7FFF719F9D4E7FFF72CF9E1
:10594000D1E7FFF73FF9CEE7FFF780F970BD00BF61
:10595000FC04002010050020AC050020B40C002041
:10596000DFF834D0002103E00C4B5B584350043186
:105970000B480C4B42189A42F6D30B4A02E0002324
:1059800042F8043B094B9A42F9D3FBF7F3FA00F0D3
:1059900017F8FCF721FE7047000002204085000840
:1059A00000000020DC010020DC010020BC0C0020F5
:1059B000FEE70000014B1868704700BF0C00002094
:1059C00070B50D4E0D4CA41BA4100025A54209D1A5
:1059D0000B4E0C4C02F0FCFBA41BA4100025A542AE
:1059E00005D170BD56F8253098470135EEE756F8D9
:1059F000253098470135F2E73885000838850008DA
:105A0000388500083C85000802440346934200D1D3
:105A1000704703F8011BF9E72DE9FF4755EC104BE0
:105A20000D9FDDF830A0002D0E4691461946B8BFF7
:105A300022462B4627F02007BBBF05F100431D4639
:105A400000232D23B8BF1446462F0B7004D0452FDA
:105A500000D10136022100E0032103AB019302AB28
:105A600000933246534645EC104B00F04DFE472F55
:105A7000804602D119F0010F26D0462F08EB060907
:105A800011D198F80030302B0AD100220023204693
:105A90002946FBF719F818B9C6F10106CAF80060E3
:105AA000DAF8003099440022002320462946FBF70B
:105AB0000BF838B93022039B4B4505D2591C039192
:105AC0001A70F8E7CDF80C90039B0E9AA3EB08032D
:105AD0004046136004B0BDE8F087F7B500290446DE
